:020000040800F2
:1000000000280020F11A0008011900080919000849
:100010001119000819190008211900080000000032
:100020000000000000000000000000002919000886
:100030003519000800000000411900084D1900089A
:10004000391B0008391B0008391B0008391B000840
:10005000391B0008391B0008391B0008391B000830
:10006000391B0008391B0008391B0008391B000820
:10007000391B0008391B0008391B0008391B000810
:10008000391B0008391B0008391B0008391B000800
:10009000391B0008391B0008391B0008391B0008F0
:1000A000391B0008391B0008391B0008391B0008E0
:1000B00059190008391B000800000000391B00080E
:1000C000391B00080000000000000000391B000878
:1000D00000000000391B0008391B00080000000068
:1000E000391B0008391B0008391B000800000000FC
:1000F0000000000000000000000000000000000000
:0C01000000000000000000005FF808F1A3
:10010C0010B5054C237833B9044B13B10448AFF345
:10011C0000800123237010BD6C0000200000000043
:10012C007031000808B5034B1BB103490348AFF30A
:10013C00008008BD00000000700000207031000835
:10014C0080B500AF3A4B1B68012B6ED1394B1B6845
:10015C00042B61D801A252F823F000BF7D010008E6
:10016C0085010008AD010008D5010008FD0100085B
:10017C00304B01221A6058E001F0F8FB2E4B1B6843
:10018C0001332D4A13602C4B1A682C4B1B689A4276
:10019C0044DB284B02221A60274B00221A603DE0F8
:1001AC0001F0E4FB244B1B680133234A1360224B00
:1001BC001A68234B1B689A4232DB1E4B03221A60CF
:1001CC001D4B00221A602BE001F0D0FB1A4B1B6870
:1001DC000133194A1360184B1A68184B1B689A4262
:1001EC0020DB144B04221A60134B00221A6019E016
:1001FC0001F0BCFB104B1B6801330F4A13600E4B14
:10020C001A680F4B1B689A420EDB0A4B01221A60CC
:10021C00094B00221A6007E000BF06E000BF04E0B3
:10022C0000BF02E000BF00E000BF00BF80BD00BF08
:10023C005400002098000020940000204C00002066
:10024C005000002080B483B000AF7860094A7B680E
:10025C0052F82330012B06D1064A7B68002142F864
:10026C002310012300E0002318460C37BD4680BC48
:10027C00704700BF8800002080B483B000AF786066
:10028C00044A7B68012142F8231000BF0C37BD469D
:10029C0080BC70478800002080B582B000AF00237E
:1002AC007B6073E03D4A7B6852F823203C497B68B5
:1002BC0041F823203B4A7B6852F8232037497B685E
:1002CC0041F82320384A7B6852F823309BB21946F8
:1002DC00364801F019FF03461946324A7B6842F84A
:1002EC0023102E4A7B6852F823202E497B6851F844
:1002FC0023309A4247D1294A7B6852F82320284957
:10030C007B6851F823309A423DD1254A7B6852F8DC
:10031C00232027497B6851F823309A4216D0204A73
:10032C007B6852F8232022497B6841F82320204A1D
:10033C007B6852F82330002B25D11E4A7B68C821DC
:10034C0042F823107868FFF797FF1CE0194A7B6886
:10035C0052F823305A1E17497B6841F82320154A5E
:10036C007B6852F82330002B0DD1124A7B68C821D0
:10037C0042F823100E4A7B6852F82330002B02D12E
:10038C007868FFF779FF7B6801337B607B68022B11
:10039C0088DD00BF00BF0837BD4680BD18000020B7
:1003AC00240000200C000020000000200008014068
:1003BC00300000203C00002080B582B000AF786097
:1003CC00204B1B68012B02D0022B20D035E01E4B9A
:1003DC001A681E4B83FB02139910D317C91A0B46CC
:1003EC009B000B445B00D11A084600F0ABFC7A680A
:1003FC00164B83FB02139910D317C91A0B469B009B
:10040C000B445B00D11A084600F0D2FA15E00E4BF3
:10041C001B680E4A82FB03129210DB17D31A184684
:10042C0000F090FC7B68094A82FB03129210DB17E8
:10043C00D31A184600F0BCFA00BF00BF0837BD46FF
:10044C0080BD00BF5C00002054000020676666661B
:10045C0080B500AF834B1B68013B032B00F29081EE
:10046C0001A252F823F000BF85040008A70400087D
:10047C0087050008990600080020FFF7E3FE0346F5
:10048C00012B40F07F81774B02221A60764B0022C1
:10049C001A60764B00221A6074E1754B1B68184683
:1004AC00FFF78AFF0421734801F05DFE402171487B
:1004BC0001F059FE002208216E4801F03CFE00229A
:1004CC0080216C4801F037FE00221021694801F0B0
:1004DC0032FE00224FF48071664801F02CFE0020A1
:1004EC00FFF7B0FE0346012B05D15E4B03221A60C9
:1004FC005F4B00221A600120FFF7A4FE0346012B7C
:10050C000BD15B4B1B680133594A1360584B1B686A
:10051C00632B02DD564B00221A600220FFF792FE7D
:10052C000346012B40F03081514B1B68002B00F02F
:10053C002B814F4B1A68504B1B689A4203DC4F4B74
:10054C001B684B4A13604A4B1B684C4A13604B4B5D
:10055C001A68494B1B68D31A494A1360444B002252
:10056C001A6000F029F9404B00221A60454B012219
:10057C001A603C4B01221A6006E1434B1B6818467B
:10058C00FFF71AFF08213B4801F0EDFD80213948A7
:10059C0001F0E9FD00220421364801F0CCFD0022D7
:1005AC004021344801F0C7FD00221021314801F0F0
:1005BC00C2FD00224FF480712E4801F0BCFD0020DA
:1005CC00FFF740FE0346012B05D1264B04221A608F
:1005DC002D4B00221A600120FFF734FE0346012B3D
:1005EC000BD1294B1B680133274A1360264B1B6820
:1005FC00622B02DD244B00221A600220FFF722FE40
:10060C000346012B40F0C2801F4B1B68002B00F0EF
:10061C00BD801D4B1B681A4A1360174B1A68184B88
:10062C001B681344154A1360174B00221A60134BB6
:10063C001B68632B09DD114B63221A600F4B1A6880
:10064C000F4B1B68D31A0C4A136000F0B5F8064B1D
:10065C0000221A600B4B01221A60024B01221A6015
:10066C0094E000BF5400002098000020940000206B
:10067C00B400002000080140500000204800002079
:10068C004C00002058000020B8000020424B1B6892
:10069C001846FFF791FE1021404801F064FD4FF41D
:1006AC0080713E4801F05FFD002208213B4801F0BB
:1006BC0042FD00228021394801F03DFD0022042139
:1006CC00364801F038FD00224021344801F033FD5A
:1006DC000020FFF7B7FD0346012B0DD12E4B002256
:1006EC001A602F4B01221A6000F066F82D4B002285
:1006FC001A602D4B01221A600120FFF7A3FD03465F
:10070C00012B0BD1244B1B680133234A1360224B62
:10071C001B68622B02DD204B00221A600220FFF7BF
:10072C0091FD0346012B33D11B4B1B68002B2FD0A3
:10073C00194B1B681D4A1360174B00221A601C4B87
:10074C001A681A4B1B6813441A4A1360194B1B681E
:10075C00632B09DD174B63221A60164B1A68134B77
:10076C001B68D31A124A136000F026F80D4B0022B6
:10077C001A600D4B01221A60094B01221A6007E026
:10078C0000BF06E000BF04E000BF02E000BF00E0D5
:10079C0000BF00BF80BD00BFBC00002000080140AE
:1007AC005400002098000020580000205000002029
:1007BC004C0000204800002080B400AF274B1B6881
:1007CC00274A82FB03129210DB17D31A254A1360B7
:1007DC00224B1968224B83FB01239A10CB17D21A98
:1007EC0013469B0013445B00CA1A1E4B5A601E4BE7
:1007FC001B681B4A82FB03129210DB17D31A194A8F
:10080C009360194B1968164B83FB01239A10CB1775
:10081C00D21A13469B0013445B00CA1A114BDA60C0
:10082C00124B1B680E4A82FB03129210DB17D31A71
:10083C000C4A13610D4B1968094B83FB01239A1069
:10084C00CB17D21A13469B0013445B00CA1A054BF4
:10085C005A6100BFBD4680BC704700BF48000020F5
:10086C00676666669C0000204C000020500000204B
:10087C0080B586B000AF274B9B69264A43F0040332
:10088C009361244B9B6903F004037B607B68214BD1
:10089C009B69204A43F0080393611E4B9B6903F04C
:1008AC0008033B603B6807F1080300221A605A609A
:1008BC009A60DA604FF2FC13BB600123FB600023EB
:1008CC003B6102237B6107F108031946124801F0D2
:1008DC009FFA4FF46063BB600023FB6001233B6114
:1008EC0007F1080319460C4801F092FA43F6FF731E
:1008FC00BB600123FB6000233B6102237B6107F19A
:10090C0008031946054801F083FA00BF1837BD46A5
:10091C0080BD00BF0010024000080140000C0140E7
:10092C0080B500AF204B1B68012B02D0022B1CD0D2
:10093C0037E000224FF480511C4801F0FCFB0122EF
:10094C004FF40051194801F0F6FB00224FF480419E
:10095C00164801F0F0FB01224FF40041134801F05E
:10096C00EAFB114B02221A601BE001224FF480516A
:10097C000E4801F0E0FB00224FF400510B4801F04F
:10098C00DAFB01224FF48041084801F0D4FB00222D
:10099C004FF40041054801F0CEFB034B01221A60D5
:1009AC0000BF00BF80BD00BF5C00002000080140FC
:1009BC0080B582B000AF78607B68092B00F2BC81F7
:1009CC0001A252F823F000BFFD090008510A0008EB
:1009DC00A50A0008F90A00084D0B0008A10B000835
:1009EC00F50B0008490C00089D0C0008F10C0008E0
:1009FC0000228021D24801F09EFB00224FF480712E
:100A0C00CF4801F098FB00224FF40071CC4801F064
:100A1C0092FB00224FF48061C94801F08CFB00224C
:100A2C004FF40061C64801F086FB00224FF4805160
:100A3C00C34801F080FB01224FF40051C04801F083
:100A4C007AFB79E101228021BD4801F074FB002280
:100A5C004FF48071BA4801F06EFB00224FF4007124
:100A6C00B74801F068FB01224FF48061B44801F0F3
:100A7C0062FB01224FF40061B14801F05CFB0122E2
:100A8C004FF48051AE4801F056FB01224FF4005157
:100A9C00AB4801F050FB4FE100228021A84801F047
:100AAC004AFB00224FF48071A54801F044FB01225F
:100ABC004FF40071A24801F03EFB00224FF480611C
:100ACC009F4801F038FB00224FF400619C4801F074
:100ADC0032FB01224FF48051994801F02CFB00228B
:100AEC004FF40051964801F026FB25E100228021AD
:100AFC00934801F020FB00224FF48071904801F0E4
:100B0C001AFB00224FF400718D4801F014FB0022F7
:100B1C004FF480618A4801F00EFB01224FF4006112
:100B2C00874801F008FB01224FF48051844801F002
:100B3C0002FB00224FF40051814801F0FCFAFBE06B
:100B4C00012280217E4801F0F6FA00224FF48071D8
:100B5C007B4801F0F0FA00224FF40071784801F064
:100B6C00EAFA01224FF48061754801F0E4FA01229F
:100B7C004FF40061724801F0DEFA00224FF480510C
:100B8C006F4801F0D8FA00224FF400516C4801F084
:100B9C00D2FAD1E000228021694801F0CCFA01227E
:100BAC004FF48071664801F0C6FA00224FF40071D0
:100BBC00634801F0C0FA00224FF48061604801F0F4
:100BCC00BAFA01224FF400615D4801F0B4FA002238
:100BDC004FF480515A4801F0AEFA00224FF4005104
:100BEC00574801F0A8FAA7E000228021544801F0F0
:100BFC00A2FA01224FF48071514801F09CFA0022B4
:100C0C004FF400714E4801F096FA00224FF48061C7
:100C1C004B4801F090FA00224FF40061484801F073
:100C2C008AFA00224FF48051454801F084FA0022E0
:100C3C004FF40051424801F07EFA7DE00022802101
:100C4C003F4801F078FA00224FF480713C4801F0E3
:100C5C0072FA00224FF40071394801F06CFA01224B
:100C6C004FF48061364801F066FA01224FF40061BE
:100C7C00334801F060FA01224FF48051304801F002
:100C8C005AFA01224FF400512D4801F054FA53E066
:100C9C00002280212A4801F04EFA00224FF4807184
:100CAC00274801F048FA00224FF40071244801F063
:100CBC0042FA00224FF48061214801F03CFA0022F4
:100CCC004FF400611E4801F036FA00224FF48051B7
:100CDC001B4801F030FA00224FF40051184801F083
:100CEC002AFA29E000228021154801F024FA00227A
:100CFC004FF48071124801F01EFA00224FF400717B
:100D0C000F4801F018FA00224FF480610C4801F0F2
:100D1C0012FA01224FF40061094801F00CFA00228A
:100D2C004FF48051064801F006FA00224FF40051AE
:100D3C00034801F000FA00BF00BF0837BD4680BD74
:100D4C00000C014080B582B000AF78607B68092B45
:100D5C0000F2808101A252F823F000BF910D00082F
:100D6C00D90D0008210E0008690E0008B10E00080C
:100D7C00F90E0008410F0008890F0008D10F000878
:100D8C001910000800220121B44801F0D4F9002206
:100D9C000221B24801F0CFF900220421AF4801F042
:100DAC00CAF900220821AD4801F0C5F90022102132
:100DBC00AA4801F0C0F900222021A84801F0BBF993
:100DCC0001224021A54801F0B6F943E1012201219D
:100DDC00A24801F0B0F900220221A04801F0ABF9C1
:100DEC00002204219D4801F0A6F9012208219B480C
:100DFC0001F0A1F901221021984801F09CF901227F
:100E0C002021964801F097F901224021934801F0E6
:100E1C0092F91FE100220121904801F08CF9002287
:100E2C0002218E4801F087F9012204218B4801F040
:100E3C0082F900220821894801F07DF90022102155
:100E4C00864801F078F901222021844801F073F9D9
:100E5C0000224021814801F06EF9FBE000220121C3
:100E6C007E4801F068F9002202217C4801F063F908
:100E7C0000220421794801F05EF90022082177480C
:100E8C0001F059F901221021744801F054F90122A2
:100E9C002021724801F04FF9002240216F4801F0E7
:100EAC004AF9D7E0012201216C4801F044F90022F3
:100EBC0002216A4801F03FF900220421674801F041
:100ECC003AF901220821654801F035F90122102177
:100EDC00624801F030F900222021604801F02BF922
:100EEC00002240215D4801F026F9B3E000220121E7
:100EFC005A4801F020F901220221584801F01BF94F
:100F0C0000220421554801F016F90022082153480B
:100F1C0001F011F901221021504801F00CF90022C6
:100F2C0020214E4801F007F9002240214B4801F0E6
:100F3C0002F98FE000220121484801F0FCF801225F
:100F4C000221464801F0F7F800220421434801F041
:100F5C00F2F800220821414801F0EDF8002210219E
:100F6C003E4801F0E8F8002220213C4801F0E3F86B
:100F7C0000224021394801F0DEF86BE0002201210B
:100F8C00364801F0D8F800220221344801F0D3F899
:100F9C0000220421314801F0CEF8012208212F480B
:100FAC0001F0C9F8012210212C4801F0C4F80122EB
:100FBC0020212A4801F0BFF801224021274801F0E6
:100FCC00BAF847E000220121244801F0B4F80022CD
:100FDC000221224801F0AFF8002204211F4801F041
:100FEC00AAF8002208211D4801F0A5F800221021C2
:100FFC001A4801F0A0F800222021184801F09BF8B3
:10100C0000224021154801F096F823E0002201212E
:10101C00124801F090F800220221104801F08BF8E0
:10102C00002204210D4801F086F8002208210B480B
:10103C0001F081F801221021084801F07CF800220F
:10104C002021064801F077F800224021034801F0E6
:10105C0072F800BF00BF0837BD4680BD000C0140D0
:10106C0080B500AF174B1B68012B02D0022B0ED0A2
:10107C0025E0154B1B691846FFF764FE124B1B68E5
:10108C001846FFF795FC0F4B02221A6017E00E4B27
:10109C005B691846FFF756FE0B4B5B681846FFF76B
:1010AC0087FC094B5B68013B074A5360064B5B6945
:1010BC00013B054A5361034B01221A6000BF00BF7C
:1010CC0080BD00BF580000209C00002080B500AF00
:1010DC00174B1B68012B02D0022B0ED025E0154BB1
:1010EC009B681846FFF72EFE124B1B681846FFF73D
:1010FC005FFC0F4B02221A6017E00E4BDB681846A0
:10110C00FFF720FE0B4B5B681846FFF751FC094BB1
:10111C005B68013B074A5360064BDB68013B054AA1
:10112C00D360034B01221A6000BF00BF80BD00BF1B
:10113C00580000209C00002080B500AF174B1B68A6
:10114C00012B02D0022B0ED025E0154B1B68184644
:10115C00FFF7F8FD124B1B691846FFF729FC0F4BE4
:10116C0002221A6017E00E4B5B681846FFF7EAFD87
:10117C000B4B5B691846FFF71BFC094B5B68013B8B
:10118C00074A5360064B5B69013B054A5361034BAD
:10119C0001221A6000BF00BF80BD00BF58000020B4
:1011AC009C00002080B500AF174B1B68012B02D0B0
:1011BC00022B0ED025E0154B1B681846FFF7C2FD1D
:1011CC00124B9B681846FFF7F3FB0F4B02221A6079
:1011DC0017E00E4B5B681846FFF7B4FD0B4BDB6852
:1011EC001846FFF7E5FB094B5B68013B074A536068
:1011FC00064BDB68013B054AD360034B01221A60A6
:10120C0000BF00BF80BD00BF580000209C00002024
:10121C0080B400AF4B4B5B68002B0BDA494B1B685F
:10122C00002B07DD474B09225A60464B1B68013BDC
:10123C00444A1360434B1B68002B1CD1414B5B6829
:10124C00002B18D1404B1B68404A82FB03129210B2
:10125C00DB17D31A3B4A13603B4B19683B4B83FBA0
:10126C0001239A10CB17D21A13469B0013445B0030
:10127C00CA1A344B5A60334BDB68002B0BDA314BF8
:10128C009B68002B07DD2F4B0922DA602D4B9B68E6
:10129C00013B2C4A93602B4B9B68002B1CD1294B98
:1012AC00DB68002B18D12A4B1B68284A82FB0312DF
:1012BC009210DB17D31A234A9360254B1968234BE2
:1012CC0083FB01239A10CB17D21A13469B001344AD
:1012DC005B00CA1A1B4BDA601A4B5B69002B0BDAEA
:1012EC00184B1B69002B07DD164B09225A61154B55
:1012FC001B69013B134A1361124B1B69002B1CD158
:10130C00104B5B69002B18D1124B1B680F4A82FBE8
:10131C0003129210DB17D31A0A4A13610D4B19688A
:10132C000A4B83FB01239A10CB17D21A13469B004E
:10133C0013445B00CA1A034B5A6100BFBD4680BC04
:10134C00704700BF9C00002048000020676666665E
:10135C004C0000205000002080B500AF104B1B68E3
:10136C00042B19D801A252F823F000BFA5130008D2
:10137C008D13000893130008991300089F1300089D
:10138C00FFF710FF09E0FFF7D7FE06E0FFF79EFE20
:10139C0003E0FFF765FE00E000BF00BF80BD00BFAB
:1013AC009800002080B500AF2021024800F0DBFE41
:1013BC0000BF80BD0008014080B500AF00F0B8FB55
:1013CC0000F038F800F072F8134801F013FBFFF747
:1013DC004FFA00F0C9F86422C821104800F04AF90D
:1013EC00642200210E4800F045F9322200210D48FC
:1013FC0000F040F9322200210B4800F03BF9322278
:10140C0000210A4800F036F932220021084800F089
:10141C0031F900F081F9FCE7C0000020B11300089D
:10142C004D010008651300082D0900085D04000833
:10143C001D12000880B590B000AF07F118032822E8
:10144C000021184601F062FE3B1D00221A605A6012
:10145C009A60DA601A610223BB610123BB6210231C
:10146C00FB6200237B6307F11803184600F094FE1F
:10147C000346002B01D000F071F80F237B60002392
:10148C00BB600023FB6000233B6100237B613B1DA1
:10149C000021184601F002F90346002B01D000F0A0
:1014AC005DF800BF4037BD4680BD000080B586B0FA
:1014BC0000AF07F1080300221A605A609A60DA60E4
:1014CC003B4600221A605A601D4B4FF080421A6056
:1014DC001B4B41F63F725A60194B00229A60184B15
:1014EC000922DA60164B00221A61154B00229A6110
:1014FC00134801F02FFA0346002B01D000F02EF810
:10150C004FF48053BB6007F1080319460C4801F0F7
:10151C00ADFB0346002B01D000F020F800233B600C
:10152C0000237B603B461946054801F085FD0346C8
:10153C00002B01D000F012F800BF1837BD4680BD5B
:10154C00C000002080B582B000AF786000F024F8B5
:10155C00FEF7A2FE00BF0837BD4680BD80B400AFC9
:10156C0072B600BF00BFFDE780B582B000AF0023AC
:10157C00FB7106E0FB79184600F01CF9FB7901338E
:10158C00FB71FB79272BF5D900F052F900F056F9D5
:10159C0000BF0837BD4680BD80B483B000AF0023C8
:1015AC00FB715CE0FA79324913469B0013449B00B3
:1015BC000B441B68002B4FD0FA792D4913469B0026
:1015CC0013449B000B4404331B68002B32D1FA7973
:1015DC00274913469B0013449B000B440C331B7888
:1015EC00FA790133D8B2224913469B0013449B006D
:1015FC000B440C3302461A70FA791D4913469B00B2
:10160C0013449B000B4408331B68002B24D0F9793E
:10161C00FA7917480B469B000B449B000344083394
:10162C001968134813469B0013449B00034404336E
:10163C00196011E0FA790E4913469B0013449B0084
:10164C000B4404331B68591E094813469B00134472
:10165C009B00034404331960FB790133FB71FB7964
:10166C00272B9FD900BF00BF0C37BD4680BC7047ED
:10167C000801002080B487B000AFF860B9607A60D0
:10168C000023FB7502E0FB7D0133FB75FA7D2149DC
:10169C0013469B0013449B000B441B68002B02D089
:1016AC00FB7D272BEFD9FA7D1A4913469B00134477
:1016BC009B000B44FA681A60FA7D164913469B008E
:1016CC0013449B000B440433BA681A60FA7D114929
:1016DC0013469B0013449B000B4408337A681A6032
:1016EC00FA7D0C4913469B0013449B000B440C33AE
:1016FC0000221A70FA7DF97D064813469B001344AC
:10170C009B0003441033196000BF1C37BD4680BCDE
:10171C00704700BF0801002080B582B000AF0023E5
:10172C00FB7139E0FA79224913469B0013449B0064
:10173C000B440C331B78002B2BD0FA791C49134625
:10174C009B0013449B000B441B689847FA7918497B
:10175C0013469B0013449B000B440C331B78013B3A
:10176C00D8B2134913469B0013449B000B440C3313
:10177C0002461A70FA790E4913469B0013449B00DB
:10178C000B4408331B68002B03D1FB79184600F07F
:10179C0011F8FB790133FB71FB79272BC2D900F0CF
:1017AC003BF800F03FF800BF0837BD4680BD00BFD6
:1017BC000801002080B483B000AF786015497A68C6
:1017CC0013469B0013449B000B4400221A601149E2
:1017DC007A6813469B0013449B000B44043300228D
:1017EC001A600C497A6813469B0013449B000B4407
:1017FC00083300221A6007497A6813469B00134489
:10180C009B000B440C3300221A7000BF0C37BD46F2
:10181C0080BC70470801002080B400AF00BFBD46FB
:10182C0080BC704780B400AF00BFBD4680BC704721
:10183C0080B400AF00BFBD4680BC704780B400AF21
:10184C0000BFBD4680BC704780B485B000AF154B5F
:10185C009B69144A43F001039361124B9B6903F09B
:10186C000103BB60BB680F4BDB690E4A43F080532E
:10187C00D3610C4BDB6903F080537B607B680A4BB4
:10188C005B68FB60FB6823F0E063FB60FB6843F084
:10189C008063FB60044AFB68536000BF1437BD468D
:1018AC0080BC7047001002400000014080B584B03D
:1018BC0000AF78607B681B68B3F1804F13D10C4B81
:1018CC00DB690B4A43F00103D361094BDB6903F07D
:1018DC000103FB60FB68002200211C2000F061FA70
:1018EC001C2000F07AFA00BF1037BD4680BD00BF47
:1018FC000010024080B400AF00BFFDE780B400AF21
:10190C0000BFFDE780B400AF00BFFDE780B400AFBF
:10191C0000BFFDE780B400AF00BFFDE780B400AFAF
:10192C0000BFBD4680BC704780B400AF00BFBD4651
:10193C0080BC704780B400AF00BFBD4680BC704710
:10194C0080B500AF00F03AF900BF80BD80B500AFA4
:10195C00024801F09BF800BF80BD00BFC000002012
:10196C0080B400AF00BFBD4680BC704780B500AFEF
:10197C005A4B1B68042B00F2AD8001A252F823F0E5
:10198C00A1190008E1190008211A0008611A0008C1
:10199C00A11A000800220421514800F0CCFB0022BF
:1019AC0008214F4800F0C7FB002210214C4800F0E2
:1019BC00C2FB002240214A4800F0BDFB00228021DE
:1019CC00474800F0B8FB00224FF48071444800F007
:1019DC00B2FB80E001220421414800F0ACFB002264
:1019EC0008213F4800F0A7FB002210213C4800F0E2
:1019FC00A2FB002240213A4800F09DFB01228021ED
:101A0C00374800F098FB00224FF48071344800F006
:101A1C0092FB60E001220421314800F08CFB002293
:101A2C0008212F4800F087FB002210212C4800F0E1
:101A3C0082FB002240212A4800F07DFB00228021FD
:101A4C00274800F078FB01224FF48071244800F005
:101A5C0072FB40E000220421214800F06CFB0122C3
:101A6C0008211F4800F067FB002210211C4800F0E1
:101A7C0062FB012240211A4800F05DFB002280210C
:101A8C00174800F058FB00224FF48071144800F006
:101A9C0052FB20E000220421114800F04CFB0022F4
:101AAC0008210F4800F047FB012210210C4800F0E0
:101ABC0042FB012240210A4800F03DFB002280211C
:101ACC00074800F038FB00224FF48071044800F006
:101ADC0032FB00E000BF00BF80BD00BF98000020BB
:101AEC0000080140FFF73CFF0B480C490C4A00234F
:101AFC0002E0D458C4500433C4188C42F9D3094AB8
:101B0C00094C002301E013600432A242FBD301F024
:101B1C0005FBFFF751FC7047000000206C00002013
:101B2C00B43100086C0000202C040020FEE70000FB
:101B3C0080B500AF084B1B68074A43F010031360D5
:101B4C00032000F023F90F2000F008F8FFF77CFECB
:101B5C000023184680BD00BF0020024080B582B033
:101B6C0000AF7860124B1A68124B1B7819464FF471
:101B7C007A73B3FBF1F3B2FBF3F3184600F03BF9C5
:101B8C000346002B01D001230EE07B680F2B0AD8F3
:101B9C00002279684FF0FF3000F003F9064A7B68A9
:101BAC001360002300E0012318460837BD4680BDB2
:101BBC0060000020680000206400002080B400AFAA
:101BCC00054B1B781A46054B1B681344034A1360DC
:101BDC0000BFBD4680BC7047680000202804002070
:101BEC0080B400AF024B1B681846BD4680BC7047E2
:101BFC002804002080B485B000AF78607B6803F0C7
:101C0C000703FB600C4BDB68BB60BA684FF6FF0345
:101C1C001340BB60FB681A02BB68134343F0BF63FD
:101C2C0043F40033BB60044ABB68D36000BF143775
:101C3C00BD4680BC704700BF00ED00E080B400AF33
:101C4C00044BDB681B0A03F007031846BD4680BC37
:101C5C00704700BF00ED00E080B483B000AF0346D6
:101C6C00FB7197F90730002B0BDBFB7903F01F029C
:101C7C00064997F907305B09012000FA02F241F896
:101C8C00232000BF0C37BD4680BC704700E100E04C
:101C9C0080B483B000AF03463960FB7197F907300D
:101CAC00002B0ADB3B68DAB20C4997F907301201BA
:101CBC00D2B20B4483F800230AE03B68DAB208493D
:101CCC00FB7903F00F03043B1201D2B20B441A76DA
:101CDC0000BF0C37BD4680BC704700BF00E100E080
:101CEC0000ED00E080B489B000AFF860B9607A60B4
:101CFC00FB6803F00703FB61FB69C3F10703042BCB
:101D0C0028BF0423BB61FB690433062B02D9FB6992
:101D1C00033B00E000237B614FF0FF32BB6902FA0A
:101D2C0003F3DA43BB681A407B699A404FF0FF31EA
:101D3C007B6901FA03F3D9437B680B4013431846C4
:101D4C002437BD4680BC704780B582B000AF786048
:101D5C007B68013BB3F1807F01D301230FE00A4A7A
:101D6C007B68013B53600F214FF0FF30FFF790FF72
:101D7C00054B00229A60044B07221A600023184678
:101D8C000837BD4680BD00BF10E000E080B582B0D2
:101D9C0000AF78607868FFF72DFF00BF0837BD46AD
:101DAC0080BD80B586B000AF0346B9607A60FB7326
:101DBC0000237B61FFF742FF78617A68B968786924
:101DCC00FFF790FF024697F90F3011461846FFF7C0
:101DDC005FFF00BF1837BD4680BD80B582B000AF35
:101DEC000346FB7197F907301846FFF735FF00BF24
:101DFC000837BD4680BD80B582B000AF786078688A
:101E0C00FFF7A2FF034618460837BD4680BD000009
:101E1C0080B48BB000AF7860396000237B62002304
:101E2C003B6261E101227B6A02FA03F3FB613B68CE
:101E3C001B68FA691340BB61BA69FB699A4240F0AE
:101E4C0050813B685B68974A93425ED0954A9342B7
:101E5C0075D8954A934258D0934A93426FD8934A77
:101E6C00934252D0914A934269D8914A93424CD0B2
:101E7C008F4A934263D88F4A934246D08D4A9342FD
:101E8C005DD8122B2AD8122B59D801A252F823F064
:101E9C00171F0008F11E0008031F0008451F00084B
:101EAC004B1F00084B1F00084B1F00084B1F00085E
:101EBC004B1F00084B1F00084B1F00084B1F00084E
:101ECC004B1F00084B1F00084B1F00084B1F00083E
:101EDC004B1F0008F91E00080D1F0008764A93429C
:101EEC0013D02CE03B68DB683B6229E03B68DB6885
:101EFC0004333B6224E03B68DB6808333B621FE041
:101F0C003B68DB680C333B621AE03B689B68002B38
:101F1C0002D104233B6213E03B689B68012B05D183
:101F2C0008233B627B68FA691A6109E008233B626B
:101F3C007B68FA695A6103E000233B6200E000BF52
:101F4C00BB69FF2B01D87B6801E07B6804337B61A4
:101F5C00BB69FF2B02D87B6A9B0002E07B6A083BC3
:101F6C009B003B617B691A680F213B6901FA03F303
:101F7C00DB431A40396A3B6901FA03F31A437B6964
:101F8C001A603B685B6803F08053002B00F0A9805B
:101F9C004A4B9B69494A43F001039361474B9B6948
:101FAC0003F00103BB60BB68454A7B6A9B080233A4
:101FBC0052F82330FB607B6A03F003039B000F2273
:101FCC0002FA03F3DB43FA681340FB607B683D4A7B
:101FDC0093420DD07B683C4A934207D07B683B4AC6
:101FEC00934201D1022304E0032302E0012300E029
:101FFC0000237A6A02F0030292009340FA681343BA
:10200C00FB602F497B6A9B080233FA6841F8232056
:10201C003B685B6803F48013002B06D02C4B9A684A
:10202C002B49BB6913438B6006E0294B9A68BB694B
:10203C00DB43274913408B603B685B6803F4001358
:10204C00002B06D0224BDA682149BB691343CB60C5
:10205C0006E01F4BDA68BB69DB431D491340CB60BC
:10206C003B685B6803F40033002B06D0184B5A68AE
:10207C001749BB6913434B6006E0154B5A68BB69A3
:10208C00DB43134913404B603B685B6803F48033BC
:10209C00002B1FD00E4B1A680D49BB6913430B6004
:1020AC001FE000BF000032100000311000002210B1
:1020BC00000021100000121000001110001002404E
:1020CC000000014000080140000C014000100140DC
:1020DC00000401400B4B1A68BB69DB4309491340F0
:1020EC000B607B6A01337B623B681A687B6A22FA5D
:1020FC0003F3002B7FF496AE00BF00BF2C37BD4618
:10210C0080BC70470004014080B485B000AF78609B
:10211C000B467B807B689A687B881340002B02D02F
:10212C000123FB7301E00023FB73FB7B1846143780
:10213C00BD4680BC704780B483B000AF78600B465E
:10214C007B8013467B707B78002B03D07A887B686E
:10215C001A6103E07B881A047B681A6100BF0C3794
:10216C00BD4680BC704780B485B000AF78600B462C
:10217C007B807B68DB68FB607A88FB6813401A0401
:10218C00FB68D9437B880B401A437B681A6100BFFC
:10219C001437BD4680BC704780B586B000AF786000
:1021AC007B68002B01D1012372E27B681B6803F072
:1021BC000103002B00F08780924B5B6803F00C034B
:1021CC00042B0CD08F4B5B6803F00C03082B12D143
:1021DC008C4B5B6803F48033B3F5803F0BD1894B98
:1021EC001B6803F40033002B6CD07B685B68002BFE
:1021FC0068D101234CE27B685B68B3F5803F06D164
:10220C00804B1B687F4A43F4803313602EE07B685D
:10221C005B68002B0CD17B4B1B687A4A23F4803310
:10222C001360784B1B68774A23F4802313601DE0FE
:10223C007B685B68B3F5A02F0CD1724B1B68714A9D
:10224C0043F4802313606F4B1B686E4A43F4803356
:10225C0013600BE06B4B1B686A4A23F480331360EA
:10226C00684B1B68674A23F4802313607B685B68A8
:10227C00002B13D0FFF7B4FC386108E0FFF7B0FC7B
:10228C0002463B69D31A642B01D9032300E25D4B50
:10229C001B6803F40033002BF0D014E0FFF7A0FC14
:1022AC00386108E0FFF79CFC02463B69D31A642BAB
:1022BC0001D90323ECE1534B1B6803F40033002BCF
:1022CC00F0D100E000BF7B681B6803F00203002B19
:1022DC0063D04C4B5B6803F00C03002B0BD0494BC9
:1022EC005B6803F00C03082B1CD1464B5B6803F4B2
:1022FC008033002B16D1434B1B6803F00203002BD9
:10230C0005D07B681B69012B01D00123C0E13D4B3B
:10231C001B6823F0F8027B685B69DB0039491343C7
:10232C000B603AE07B681B69002B20D0364B0122F6
:10233C001A60FFF755FC386108E0FFF751FC0246C4
:10234C003B69D31A022B01D90323A1E12D4B1B6846
:10235C0003F00203002BF0D02A4B1B6823F0F80289
:10236C007B685B69DB00274913430B6015E0264B48
:10237C0000221A60FFF734FC386108E0FFF730FCEC
:10238C0002463B69D31A022B01D9032380E11D4B72
:10239C001B6803F00203002BF0D17B681B6803F071
:1023AC000803002B3AD07B689B69002B19D0174B84
:1023BC0001221A60FFF714FC386108E0FFF710FCEB
:1023CC0002463B69D31A022B01D9032360E10D4B62
:1023DC005B6A03F00203002BF0D0012000F09CFAA2
:1023EC001CE00A4B00221A60FFF7FAFB38610FE081
:1023FC00FFF7F6FB02463B69D31A022B08D90323DD
:10240C0046E100BF001002400000424280044242FC
:10241C00924B5B6A03F00203002BE9D17B681B68CB
:10242C0003F00403002B00F0A6800023FB758B4BFC
:10243C00DB6903F08053002B0DD1884BDB69874A95
:10244C0043F08053D361854BDB6903F08053BB6051
:10245C00BB680123FB75824B1B6803F48073002B54
:10246C0018D17F4B1B687E4A43F480731360FFF7CF
:10247C00B7FB386108E0FFF7B3FB02463B69D31AA0
:10248C00642B01D9032303E1754B1B6803F48073A0
:10249C00002BF0D07B68DB68012B06D16F4B1B6ADD
:1024AC006E4A43F0010313622DE07B68DB68002B5E
:1024BC000CD16A4B1B6A694A23F001031362674B08
:1024CC001B6A664A23F0040313621CE07B68DB681A
:1024DC00052B0CD1614B1B6A604A43F00403136259
:1024EC005E4B1B6A5D4A43F0010313620BE05B4BCE
:1024FC001B6A5A4A23F001031362584B1B6A574A52
:10250C0023F0040313627B68DB68002B15D0FFF704
:10251C0067FB38610AE0FFF763FB02463B69D31A9D
:10252C0041F28832934201D90323B1E04B4B1B6A31
:10253C0003F00203002BEED014E0FFF751FB3861DF
:10254C000AE0FFF74DFB02463B69D31A41F2883291
:10255C00934201D903239BE0404B1B6A03F0020317
:10256C00002BEED1FB7D012B05D13C4BDB693B4AAB
:10257C0023F08053D3617B68DB69002B00F08780EC
:10258C00364B5B6803F00C03082B61D07B68DB696E
:10259C00022B46D1334B00221A60FFF721FB386126
:1025AC0008E0FFF71DFB02463B69D31A022B01D949
:1025BC0003236DE0294B1B6803F00073002BF0D153
:1025CC007B681B6AB3F5803F08D1244B5B6823F40E
:1025DC0000327B689B68214913434B601F4B5B683F
:1025EC0023F474127B68196A7B685B6A0B431B4982
:1025FC0013434B601B4B01221A60FFF7F1FA386151
:10260C0008E0FFF7EDFA02463B69D31A022B01D919
:10261C0003233DE0114B1B6803F00073002BF0D03B
:10262C0035E0104B00221A60FFF7DAFA386108E047
:10263C00FFF7D6FA02463B69D31A022B01D90323C2
:10264C0026E0064B1B6803F00073002BF0D11EE054
:10265C007B68DB69012B07D1012319E000100240D4
:10266C0000700040600042420B4B5B68FB60FB68F3
:10267C0003F480327B681B6A9A4206D1FB6803F430
:10268C0070127B685B6A9A4201D0012300E0002340
:10269C0018461837BD4680BD0010024080B584B086
:1026AC0000AF786039607B68002B01D10123D0E04A
:1026BC006A4B1B6803F007033A689A4210D9674BC0
:1026CC001B6823F0070265493B6813430B60634B9F
:1026DC001B6803F007033A689A4201D00123B8E063
:1026EC007B681B6803F00203002B20D07B681B68FF
:1026FC0003F00403002B05D0594B5B68584A43F494
:10270C00E06353607B681B6803F00803002B05D063
:10271C00534B5B68524A43F460535360504B5B68B5
:10272C0023F0F0027B689B684D4913434B607B6838
:10273C001B6803F00103002B40D07B685B68012B06
:10274C0007D1474B1B6803F40033002B15D1012331
:10275C007FE07B685B68022B07D1414B1B6803F061
:10276C000073002B09D1012373E03D4B1B6803F070
:10277C000203002B01D101236BE0394B5B6823F082
:10278C0003027B685B68364913434B60FFF728FAFA
:10279C00F8600AE0FFF724FA0246FB68D31A41F20C
:1027AC008832934201D9032353E02D4B5B6803F02D
:1027BC000C027B685B689B009A42EBD1274B1B6831
:1027CC0003F007033A689A4210D2244B1B6823F09B
:1027DC00070222493B6813430B60204B1B6803F034
:1027EC0007033A689A4201D0012332E07B681B68E8
:1027FC0003F00403002B08D0194B5B6823F4E06250
:10280C007B68DB68164913434B607B681B6803F0DD
:10281C000803002B09D0124B5B6823F460527B68D1
:10282C001B69DB000E4913434B6000F021F8024694
:10283C000B4B5B681B0903F00F030A49CB5C22FAB4
:10284C0003F3094A1360094B1B681846FFF786F916
:10285C00002318461037BD4680BD00BF0020024043
:10286C000010024088310008600000206400002045
:10287C0080B487B000AF0023FB600023BB60002353
:10288C007B6100237B6000233B611E4B5B68FB601C
:10289C00FB6803F00C03042B02D0082B03D027E0B9
:1028AC00194B3B6127E0FB689B0C03F00F03174AA5
:1028BC00D35C7B60FB6803F48033002B10D0114B8E
:1028CC005B685B0C03F00103114AD35CBB607B6853
:1028DC000D4A03FB02F2BB68B2FBF3F37B6104E02D
:1028EC007B680C4A02FB03F37B617B693B6102E072
:1028FC00054B3B6100BF3B6918461C37BD4680BC8D
:10290C00704700BF0010024000127A009831000896
:10291C00A831000800093D0080B485B000AF786094
:10292C000A4B1B680A4AA2FB03235B0A7A6802FB68
:10293C0003F3FB6000BFFB685A1EFA60002BF9D151
:10294C0000BF00BF1437BD4680BC7047600000203C
:10295C00D34D621080B582B000AF78607B68002BDD
:10296C0001D1012341E07B6893F83D30DBB2002BB1
:10297C0006D17B68002283F83C207868FEF796FF2E
:10298C007B68022283F83D207B681A687B680433DD
:10299C001946104600F056FA7B68012283F846204F
:1029AC007B68012283F83E207B68012283F83F205C
:1029BC007B68012283F840207B68012283F8412048
:1029CC007B68012283F842207B68012283F8432034
:1029DC007B68012283F844207B68012283F8452020
:1029EC007B68012283F83D20002318460837BD463A
:1029FC0080BD000080B485B000AF78607B6893F830
:102A0C003D30DBB2012B01D0012335E07B68022283
:102A1C0083F83D207B681B68DA687B681B6842F092
:102A2C000102DA607B681B68164A934209D07B6806
:102A3C001B68B3F1804F04D07B681B68124A934229
:102A4C0011D17B681B689B6803F00703FB60FB6874
:102A5C00062B10D07B681B681A687B681B6842F0D9
:102A6C0001021A6007E07B681B681A687B681B68A8
:102A7C0042F001021A60002318461437BD4680BC90
:102A8C00704700BF002C01400004004080B584B0AA
:102A9C0000AF78607B681B68DB68FB607B681B6839
:102AAC001B69BB60BB6803F00203002B20D0FB68E2
:102ABC0003F00203002B1BD07B681B686FF0020233
:102ACC001A617B6801221A777B681B689B6903F08B
:102ADC000303002B03D0786800F098F905E07868C0
:102AEC0000F08BF9786800F09AF97B6800221A776D
:102AFC00BB6803F00403002B20D0FB6803F0040335
:102B0C00002B1BD07B681B686FF004021A617B687A
:102B1C0002221A777B681B689B6903F44073002BB5
:102B2C0003D0786800F072F905E0786800F065F978
:102B3C00786800F074F97B6800221A77BB6803F0A0
:102B4C000803002B20D0FB6803F00803002B1BD0DC
:102B5C007B681B686FF008021A617B6804221A7785
:102B6C007B681B68DB6903F00303002B03D07868D8
:102B7C0000F04CF905E0786800F03FF9786800F057
:102B8C004EF97B6800221A77BB6803F01003002B08
:102B9C0020D0FB6803F01003002B1BD07B681B6854
:102BAC006FF010021A617B6808221A777B681B6829
:102BBC00DB6903F44073002B03D0786800F026F92E
:102BCC0005E0786800F019F9786800F028F97B685E
:102BDC0000221A77BB6803F00103002B0CD0FB68B2
:102BEC0003F00103002B07D07B681B686FF0010218
:102BFC001A617868FEF7A6FCBB6803F08003002B13
:102C0C000CD0FB6803F08003002B07D07B681B689B
:102C1C006FF080021A61786800F06FFABB6803F0FD
:102C2C004003002B0CD0FB6803F04003002B07D0B3
:102C3C007B681B686FF040021A61786800F0F8F846
:102C4C00BB6803F02003002B0CD0FB6803F02003BF
:102C5C00002B07D07B681B686FF020021A61786824
:102C6C0000F042FA00BF1037BD4680BD80B584B07D
:102C7C0000AF786039600023FB737B6893F83C30BD
:102C8C00012B01D10223B4E07B68012283F83C20A4
:102C9C007B68022283F83D207B681B689B68BB60C5
:102CAC00BB6823F07703BB60BB6823F47F43BB6036
:102CBC007B681B68BA689A603B681B68B3F5005F59
:102CCC003ED0B3F5005F00F28780B3F5805F00F073
:102CDC008680B3F5805F7FD8702B1AD0702B7BD891
:102CEC00602B50D0602B77D8502B3CD0502B73D806
:102CFC00402B58D0402B6FD8302B64D0302B6BD856
:102D0C00202B60D0202B67D8002B5CD0102B5AD0F6
:102D1C0062E07B6818683B6899683B685A683B6856
:102D2C00DB6800F06AF97B681B689B68BB60BB685A
:102D3C0043F07703BB607B681B68BA689A604FE00E
:102D4C007B6818683B6899683B685A683B68DB6825
:102D5C0000F053F97B681B689A687B681B6842F427
:102D6C0080429A603CE07B6818683B6859683B6815
:102D7C00DB681A4600F0CAF87B681B6850211846BD
:102D8C0000F021F92CE07B6818683B6859683B68B7
:102D9C00DB681A4600F0E8F87B681B68602118466F
:102DAC0000F011F91CE07B6818683B6859683B68B7
:102DBC00DB681A4600F0AAF87B681B6840211846AD
:102DCC0000F001F90CE07B681A683B681B68194637
:102DDC00104600F0F8F803E00123FB7300E000BF9D
:102DEC007B68012283F83D207B68002283F83C201D
:102DFC00FB7B18461037BD4680BD80B483B000AF56
:102E0C00786000BF0C37BD4680BC704780B483B07F
:102E1C0000AF786000BF0C37BD4680BC704780B4F3
:102E2C0083B000AF786000BF0C37BD4680BC7047E4
:102E3C0080B483B000AF786000BF0C37BD4680BC57
:102E4C007047000080B485B000AF786039607B6853
:102E5C001B68FB607B682B4A934207D07B68B3F1FD
:102E6C00804F03D07B68284A934208D1FB6823F03B
:102E7C007003FB603B685B68FA681343FB607B681C
:102E8C00204A934207D07B68B3F1804F03D07B6814
:102E9C001D4A934208D1FB6823F44073FB603B68E6
:102EAC00DB68FA681343FB60FB6823F080023B6825
:102EBC005B691343FB607B68FA681A603B689A682D
:102ECC007B68DA623B681A687B689A627B680D4A99
:102EDC00934203D13B681A697B681A637B680122B1
:102EEC005A617B681B6903F00103002B05D07B68DA
:102EFC001B6923F001027B681A6100BF1437BD46C1
:102F0C0080BC7047002C01400004004080B487B0A6
:102F1C0000AFF860B9607A60FB681B6A7B61FB6884
:102F2C001B6A23F00102FB681A62FB689B693B6118
:102F3C003B6923F0F0033B617B681B013A69134347
:102F4C003B617B6923F00A037B617A69BB6813439D
:102F5C007B61FB683A699A61FB687A691A6200BF07
:102F6C001C37BD4680BC704780B487B000AFF8609A
:102F7C00B9607A60FB681B6A7B61FB681B6A23F093
:102F8C001002FB681A62FB689B693B613B6923F486
:102F9C0070433B617B681B033A6913433B617B695C
:102FAC0023F0A0037B61BB681B017A6913437B612F
:102FBC00FB683A699A61FB687A691A6200BF1C3730
:102FCC00BD4680BC704780B485B000AF7860396076
:102FDC007B689B68FB60FB6823F07003FB603A68BE
:102FEC00FB68134343F00703FB607B68FA689A6045
:102FFC0000BF1437BD4680BC704780B487B000AFAB
:10300C00F860B9607A603B60FB689B687B617B69A8
:10301C0023F47F437B613B681A027B681A43BB68CD
:10302C0013437A6913437B61FB687A699A6000BF2A
:10303C001C37BD4680BC704780B485B000AF78604B
:10304C0039607B6893F83C30012B01D1022341E0BD
:10305C007B68012283F83C207B68022283F83D20A8
:10306C007B681B685B68FB607B681B689B68BB604C
:10307C00FB6823F07003FB603B681B68FA68134322
:10308C00FB607B681B68FA685A607B681B68144A93
:10309C00934209D07B681B68B3F1804F04D07B68E6
:1030AC001B68104A93420CD1BB6823F08003BB60B1
:1030BC003B685B68BA681343BB607B681B68BA6883
:1030CC009A607B68012283F83D207B68002283F89C
:1030DC003C20002318461437BD4680BC704700BF07
:1030EC00002C01400004004080B483B000AF786035
:1030FC0000BF0C37BD4680BC704780B483B000AFB6
:10310C00786000BF0C37BD4680BC70470346024454
:10311C00934200D1704703F8011BF9E770B5002604
:10312C000C4D0D4C641BA410A64209D100F01AF8EA
:10313C0000260A4D0A4C641BA410A64205D170BD92
:10314C0055F8043B98470136EEE755F8043B984791
:10315C000136F2E7AC310008AC310008AC310008A4
:10316C00B0310008F8B500BFF8BC08BC9E467047EB
:0C317C00F8B500BFF8BC08BC9E467047C8
:10318800000000000000000001020304060708090F
:1031980002030405060708090A0B0C0D0E0F101090
:0431A8000102000020
:0431AC0031010008E5
:0431B0000D01000805
:1031B40000020000000400000008000001000000FC
:1031C40001000000010000000100000001000000F7
:1031D40001000000010000000100000001000000E7
:1031E400010000000100000001000000F4010000E3
:1031F400F4010000F40100000800000005000000D4
:1032040003000000010000000100000001000000B4
:0C32140000127A00100000000100000011
:0400000508001AF1E4
:00000001FF
